{
  "contractName": "Flatland",
  "abi": [
    {
      "inputs": [],
      "stateMutability": "nonpayable",
      "type": "constructor"
    },
    {
      "anonymous": false,
      "inputs": [
        {
          "indexed": true,
          "internalType": "address",
          "name": "owner",
          "type": "address"
        },
        {
          "indexed": true,
          "internalType": "address",
          "name": "approved",
          "type": "address"
        },
        {
          "indexed": true,
          "internalType": "uint256",
          "name": "tokenId",
          "type": "uint256"
        }
      ],
      "name": "Approval",
      "type": "event"
    },
    {
      "anonymous": false,
      "inputs": [
        {
          "indexed": true,
          "internalType": "address",
          "name": "owner",
          "type": "address"
        },
        {
          "indexed": true,
          "internalType": "address",
          "name": "operator",
          "type": "address"
        },
        {
          "indexed": false,
          "internalType": "bool",
          "name": "approved",
          "type": "bool"
        }
      ],
      "name": "ApprovalForAll",
      "type": "event"
    },
    {
      "anonymous": false,
      "inputs": [
        {
          "indexed": false,
          "internalType": "uint256",
          "name": "squareId",
          "type": "uint256"
        },
        {
          "indexed": false,
          "internalType": "uint256",
          "name": "color",
          "type": "uint256"
        }
      ],
      "name": "NewSquare",
      "type": "event"
    },
    {
      "anonymous": false,
      "inputs": [
        {
          "indexed": true,
          "internalType": "address",
          "name": "from",
          "type": "address"
        },
        {
          "indexed": true,
          "internalType": "address",
          "name": "to",
          "type": "address"
        },
        {
          "indexed": true,
          "internalType": "uint256",
          "name": "tokenId",
          "type": "uint256"
        }
      ],
      "name": "Transfer",
      "type": "event"
    },
    {
      "inputs": [
        {
          "internalType": "address",
          "name": "to",
          "type": "address"
        },
        {
          "internalType": "uint256",
          "name": "tokenId",
          "type": "uint256"
        }
      ],
      "name": "approve",
      "outputs": [],
      "stateMutability": "nonpayable",
      "type": "function"
    },
    {
      "inputs": [
        {
          "internalType": "address",
          "name": "owner",
          "type": "address"
        }
      ],
      "name": "balanceOf",
      "outputs": [
        {
          "internalType": "uint256",
          "name": "",
          "type": "uint256"
        }
      ],
      "stateMutability": "view",
      "type": "function",
      "constant": true
    },
    {
      "inputs": [],
      "name": "baseURI",
      "outputs": [
        {
          "internalType": "string",
          "name": "",
          "type": "string"
        }
      ],
      "stateMutability": "view",
      "type": "function",
      "constant": true
    },
    {
      "inputs": [
        {
          "internalType": "uint256",
          "name": "tokenId",
          "type": "uint256"
        }
      ],
      "name": "getApproved",
      "outputs": [
        {
          "internalType": "address",
          "name": "",
          "type": "address"
        }
      ],
      "stateMutability": "view",
      "type": "function",
      "constant": true
    },
    {
      "inputs": [
        {
          "internalType": "address",
          "name": "owner",
          "type": "address"
        },
        {
          "internalType": "address",
          "name": "operator",
          "type": "address"
        }
      ],
      "name": "isApprovedForAll",
      "outputs": [
        {
          "internalType": "bool",
          "name": "",
          "type": "bool"
        }
      ],
      "stateMutability": "view",
      "type": "function",
      "constant": true
    },
    {
      "inputs": [],
      "name": "name",
      "outputs": [
        {
          "internalType": "string",
          "name": "",
          "type": "string"
        }
      ],
      "stateMutability": "view",
      "type": "function",
      "constant": true
    },
    {
      "inputs": [
        {
          "internalType": "uint256",
          "name": "tokenId",
          "type": "uint256"
        }
      ],
      "name": "ownerOf",
      "outputs": [
        {
          "internalType": "address",
          "name": "",
          "type": "address"
        }
      ],
      "stateMutability": "view",
      "type": "function",
      "constant": true
    },
    {
      "inputs": [
        {
          "internalType": "address",
          "name": "",
          "type": "address"
        }
      ],
      "name": "ownerSquareCount",
      "outputs": [
        {
          "internalType": "uint256",
          "name": "",
          "type": "uint256"
        }
      ],
      "stateMutability": "view",
      "type": "function",
      "constant": true
    },
    {
      "inputs": [
        {
          "internalType": "address",
          "name": "from",
          "type": "address"
        },
        {
          "internalType": "address",
          "name": "to",
          "type": "address"
        },
        {
          "internalType": "uint256",
          "name": "tokenId",
          "type": "uint256"
        }
      ],
      "name": "safeTransferFrom",
      "outputs": [],
      "stateMutability": "nonpayable",
      "type": "function"
    },
    {
      "inputs": [
        {
          "internalType": "address",
          "name": "from",
          "type": "address"
        },
        {
          "internalType": "address",
          "name": "to",
          "type": "address"
        },
        {
          "internalType": "uint256",
          "name": "tokenId",
          "type": "uint256"
        },
        {
          "internalType": "bytes",
          "name": "_data",
          "type": "bytes"
        }
      ],
      "name": "safeTransferFrom",
      "outputs": [],
      "stateMutability": "nonpayable",
      "type": "function"
    },
    {
      "inputs": [
        {
          "internalType": "address",
          "name": "operator",
          "type": "address"
        },
        {
          "internalType": "bool",
          "name": "approved",
          "type": "bool"
        }
      ],
      "name": "setApprovalForAll",
      "outputs": [],
      "stateMutability": "nonpayable",
      "type": "function"
    },
    {
      "inputs": [
        {
          "internalType": "uint256",
          "name": "",
          "type": "uint256"
        }
      ],
      "name": "squareToOwner",
      "outputs": [
        {
          "internalType": "address",
          "name": "",
          "type": "address"
        }
      ],
      "stateMutability": "view",
      "type": "function",
      "constant": true
    },
    {
      "inputs": [
        {
          "internalType": "uint256",
          "name": "",
          "type": "uint256"
        }
      ],
      "name": "squares",
      "outputs": [
        {
          "internalType": "uint256",
          "name": "",
          "type": "uint256"
        }
      ],
      "stateMutability": "view",
      "type": "function",
      "constant": true
    },
    {
      "inputs": [
        {
          "internalType": "bytes4",
          "name": "interfaceId",
          "type": "bytes4"
        }
      ],
      "name": "supportsInterface",
      "outputs": [
        {
          "internalType": "bool",
          "name": "",
          "type": "bool"
        }
      ],
      "stateMutability": "view",
      "type": "function",
      "constant": true
    },
    {
      "inputs": [],
      "name": "symbol",
      "outputs": [
        {
          "internalType": "string",
          "name": "",
          "type": "string"
        }
      ],
      "stateMutability": "view",
      "type": "function",
      "constant": true
    },
    {
      "inputs": [
        {
          "internalType": "uint256",
          "name": "index",
          "type": "uint256"
        }
      ],
      "name": "tokenByIndex",
      "outputs": [
        {
          "internalType": "uint256",
          "name": "",
          "type": "uint256"
        }
      ],
      "stateMutability": "view",
      "type": "function",
      "constant": true
    },
    {
      "inputs": [
        {
          "internalType": "address",
          "name": "owner",
          "type": "address"
        },
        {
          "internalType": "uint256",
          "name": "index",
          "type": "uint256"
        }
      ],
      "name": "tokenOfOwnerByIndex",
      "outputs": [
        {
          "internalType": "uint256",
          "name": "",
          "type": "uint256"
        }
      ],
      "stateMutability": "view",
      "type": "function",
      "constant": true
    },
    {
      "inputs": [
        {
          "internalType": "uint256",
          "name": "tokenId",
          "type": "uint256"
        }
      ],
      "name": "tokenURI",
      "outputs": [
        {
          "internalType": "string",
          "name": "",
          "type": "string"
        }
      ],
      "stateMutability": "view",
      "type": "function",
      "constant": true
    },
    {
      "inputs": [],
      "name": "totalSupply",
      "outputs": [
        {
          "internalType": "uint256",
          "name": "",
          "type": "uint256"
        }
      ],
      "stateMutability": "view",
      "type": "function",
      "constant": true
    },
    {
      "inputs": [
        {
          "internalType": "address",
          "name": "from",
          "type": "address"
        },
        {
          "internalType": "address",
          "name": "to",
          "type": "address"
        },
        {
          "internalType": "uint256",
          "name": "tokenId",
          "type": "uint256"
        }
      ],
      "name": "transferFrom",
      "outputs": [],
      "stateMutability": "nonpayable",
      "type": "function"
    },
    {
      "inputs": [
        {
          "internalType": "uint256",
          "name": "_colour",
          "type": "uint256"
        }
      ],
      "name": "mint",
      "outputs": [],
      "stateMutability": "nonpayable",
      "type": "function"
    },
    {
      "inputs": [
        {
          "internalType": "uint256",
          "name": "_id",
          "type": "uint256"
        },
        {
          "internalType": "uint256",
          "name": "_newColour",
          "type": "uint256"
        }
      ],
      "name": "changeColour",
      "outputs": [],
      "stateMutability": "nonpayable",
      "type": "function"
    },
    {
      "inputs": [],
      "name": "getSquares",
      "outputs": [
        {
          "internalType": "uint256[]",
          "name": "",
          "type": "uint256[]"
        }
      ],
      "stateMutability": "view",
      "type": "function",
      "constant": true
    },
    {
      "inputs": [
        {
          "internalType": "address",
          "name": "_owner",
          "type": "address"
        }
      ],
      "name": "getSquaresIdsByOwner",
      "outputs": [
        {
          "internalType": "uint256[]",
          "name": "",
          "type": "uint256[]"
        }
      ],
      "stateMutability": "view",
      "type": "function",
      "constant": true
    },
    {
      "inputs": [
        {
          "internalType": "uint256[]",
          "name": "_squareIds",
          "type": "uint256[]"
        }
      ],
      "name": "getSquareColoursFromIds",
      "outputs": [
        {
          "internalType": "uint256[]",
          "name": "",
          "type": "uint256[]"
        }
      ],
      "stateMutability": "view",
      "type": "function",
      "constant": true
    },
    {
      "inputs": [],
      "name": "getMaxSupply",
      "outputs": [
        {
          "internalType": "uint256",
          "name": "",
          "type": "uint256"
        }
      ],
      "stateMutability": "view",
      "type": "function",
      "constant": true
    },
    {
      "inputs": [
        {
          "internalType": "address",
          "name": "_owner",
          "type": "address"
        }
      ],
      "name": "getOwnerSquareCount",
      "outputs": [
        {
          "internalType": "uint256",
          "name": "",
          "type": "uint256"
        }
      ],
      "stateMutability": "view",
      "type": "function",
      "constant": true
    }
  ],
  "bytecode": "0x60806040526010600a556002600a540a600b553480156200001f57600080fd5b506040518060400160405280600881526020017f466c61746c616e640000000000000000000000000000000000000000000000008152506040518060400160405280600881526020017f464c41544c414e44000000000000000000000000000000000000000000000000815250620000a46301ffc9a760e01b6200012660201b60201c565b8160069080519060200190620000bc9291906200022f565b508060079080519060200190620000d59291906200022f565b50620000ee6380ac58cd60e01b6200012660201b60201c565b62000106635b5e139f60e01b6200012660201b60201c565b6200011e63780e9d6360e01b6200012660201b60201c565b5050620002de565b63ffffffff60e01b817bffffffffffffffffffffffffffffffffffffffffffffffffffffffff19161415620001c3576040517f08c379a000000000000000000000000000000000000000000000000000000000815260040180806020018281038252601c8152602001807f4552433136353a20696e76616c696420696e746572666163652069640000000081525060200191505060405180910390fd5b6001600080837bffffffffffffffffffffffffffffffffffffffffffffffffffffffff19167bffffffffffffffffffffffffffffffffffffffffffffffffffffffff1916815260200190815260200160002060006101000a81548160ff02191690831515021790555050565b828054600181600116156101000203166002900490600052602060002090601f016020900481019282601f106200027257805160ff1916838001178555620002a3565b82800160010185558215620002a3579182015b82811115620002a257825182559160200191906001019062000285565b5b509050620002b29190620002b6565b5090565b620002db91905b80821115620002d7576000816000905550600101620002bd565b5090565b90565b61336380620002ee6000396000f3fe608060405234801561001057600080fd5b50600436106101a95760003560e01c80634f6ccce7116100f9578063a22cb46511610097578063b6097b3111610071578063b6097b3114610a9d578063b88d4fde14610af5578063c87b56dd14610bfa578063e985e9c514610ca1576101a9565b8063a22cb465146109bd578063a7ea8c8714610a0d578063b53c235c14610a45576101a9565b806370a08231116100d357806370a08231146108465780639026364a1461089e57806395d89b411461090c578063a0712d681461098f576101a9565b80634f6ccce7146107135780636352211e146107555780636c0360eb146107c3576101a9565b80631d1d15d4116101665780632f745c59116101405780632f745c591461058c5780633ad5e54b146105ee57806342842e0e146106875780634c0f38c2146106f5576101a9565b80631d1d15d4146103cf578063216263141461041157806323b872dd1461051e576101a9565b806301ffc9a7146101ae57806306fdde0314610213578063081812fc14610296578063095ea7b314610304578063163e950f1461035257806318160ddd146103b1575b600080fd5b6101f9600480360360208110156101c457600080fd5b8101908080357bffffffffffffffffffffffffffffffffffffffffffffffffffffffff19169060200190929190505050610d1d565b604051808215151515815260200191505060405180910390f35b61021b610d84565b6040518080602001828103825283818151815260200191508051906020019080838360005b8381101561025b578082015181840152602081019050610240565b50505050905090810190601f1680156102885780820380516001836020036101000a031916815260200191505b509250505060405180910390f35b6102c2600480360360208110156102ac57600080fd5b8101908080359060200190929190505050610e26565b604051808273ffffffffffffffffffffffffffffffffffffffff1673ffffffffffffffffffffffffffffffffffffffff16815260200191505060405180910390f35b6103506004803603604081101561031a57600080fd5b81019080803573ffffffffffffffffffffffffffffffffffffffff16906020019092919080359060200190929190505050610ec1565b005b61035a611005565b6040518080602001828103825283818151815260200191508051906020019060200280838360005b8381101561039d578082015181840152602081019050610382565b505050509050019250505060405180910390f35b6103b961105d565b6040518082815260200191505060405180910390f35b6103fb600480360360208110156103e557600080fd5b810190808035906020019092919050505061106e565b6040518082815260200191505060405180910390f35b6104c76004803603602081101561042757600080fd5b810190808035906020019064010000000081111561044457600080fd5b82018360208201111561045657600080fd5b8035906020019184602083028401116401000000008311171561047857600080fd5b919080806020026020016040519081016040528093929190818152602001838360200280828437600081840152601f19601f82011690508083019250505050505050919291929050505061108f565b6040518080602001828103825283818151815260200191508051906020019060200280838360005b8381101561050a5780820151818401526020810190506104ef565b505050509050019250505060405180910390f35b61058a6004803603606081101561053457600080fd5b81019080803573ffffffffffffffffffffffffffffffffffffffff169060200190929190803573ffffffffffffffffffffffffffffffffffffffff1690602001909291908035906020019092919050505061114b565b005b6105d8600480360360408110156105a257600080fd5b81019080803573ffffffffffffffffffffffffffffffffffffffff169060200190929190803590602001909291905050506111c1565b6040518082815260200191505060405180910390f35b6106306004803603602081101561060457600080fd5b81019080803573ffffffffffffffffffffffffffffffffffffffff16906020019092919050505061121c565b6040518080602001828103825283818151815260200191508051906020019060200280838360005b83811015610673578082015181840152602081019050610658565b505050509050019250505060405180910390f35b6106f36004803603606081101561069d57600080fd5b81019080803573ffffffffffffffffffffffffffffffffffffffff169060200190929190803573ffffffffffffffffffffffffffffffffffffffff169060200190929190803590602001909291905050506112ed565b005b6106fd61130d565b6040518082815260200191505060405180910390f35b61073f6004803603602081101561072957600080fd5b8101908080359060200190929190505050611317565b6040518082815260200191505060405180910390f35b6107816004803603602081101561076b57600080fd5b810190808035906020019092919050505061133a565b604051808273ffffffffffffffffffffffffffffffffffffffff1673ffffffffffffffffffffffffffffffffffffffff16815260200191505060405180910390f35b6107cb611371565b6040518080602001828103825283818151815260200191508051906020019080838360005b8381101561080b5780820151818401526020810190506107f0565b50505050905090810190601f1680156108385780820380516001836020036101000a031916815260200191505b509250505060405180910390f35b6108886004803603602081101561085c57600080fd5b81019080803573ffffffffffffffffffffffffffffffffffffffff169060200190929190505050611413565b6040518082815260200191505060405180910390f35b6108ca600480360360208110156108b457600080fd5b81019080803590602001909291905050506114e8565b604051808273ffffffffffffffffffffffffffffffffffffffff1673ffffffffffffffffffffffffffffffffffffffff16815260200191505060405180910390f35b61091461151b565b6040518080602001828103825283818151815260200191508051906020019080838360005b83811015610954578082015181840152602081019050610939565b50505050905090810190601f1680156109815780820380516001836020036101000a031916815260200191505b509250505060405180910390f35b6109bb600480360360208110156109a557600080fd5b81019080803590602001909291905050506115bd565b005b610a0b600480360360408110156109d357600080fd5b81019080803573ffffffffffffffffffffffffffffffffffffffff169060200190929190803515159060200190929190505050611722565b005b610a4360048036036040811015610a2357600080fd5b8101908080359060200190929190803590602001909291905050506118da565b005b610a8760048036036020811015610a5b57600080fd5b81019080803573ffffffffffffffffffffffffffffffffffffffff16906020019092919050505061196a565b6040518082815260200191505060405180910390f35b610adf60048036036020811015610ab357600080fd5b81019080803573ffffffffffffffffffffffffffffffffffffffff16906020019092919050505061197c565b6040518082815260200191505060405180910390f35b610bf860048036036080811015610b0b57600080fd5b81019080803573ffffffffffffffffffffffffffffffffffffffff169060200190929190803573ffffffffffffffffffffffffffffffffffffffff1690602001909291908035906020019092919080359060200190640100000000811115610b7257600080fd5b820183602082011115610b8457600080fd5b80359060200191846001830284011164010000000083111715610ba657600080fd5b91908080601f016020809104026020016040519081016040528093929190818152602001838380828437600081840152601f19601f820116905080830192505050505050509192919290505050611994565b005b610c2660048036036020811015610c1057600080fd5b8101908080359060200190929190505050611a0c565b6040518080602001828103825283818151815260200191508051906020019080838360005b83811015610c66578082015181840152602081019050610c4b565b50505050905090810190601f168015610c935780820380516001836020036101000a031916815260200191505b509250505060405180910390f35b610d0360048036036040811015610cb757600080fd5b81019080803573ffffffffffffffffffffffffffffffffffffffff169060200190929190803573ffffffffffffffffffffffffffffffffffffffff169060200190929190505050611cdd565b604051808215151515815260200191505060405180910390f35b6000806000837bffffffffffffffffffffffffffffffffffffffffffffffffffffffff19167bffffffffffffffffffffffffffffffffffffffffffffffffffffffff1916815260200190815260200160002060009054906101000a900460ff169050919050565b606060068054600181600116156101000203166002900480601f016020809104026020016040519081016040528092919081815260200182805460018160011615610100020316600290048015610e1c5780601f10610df157610100808354040283529160200191610e1c565b820191906000526020600020905b815481529060010190602001808311610dff57829003601f168201915b5050505050905090565b6000610e3182611d71565b610e86576040517f08c379a000000000000000000000000000000000000000000000000000000000815260040180806020018281038252602c815260200180613258602c913960400191505060405180910390fd5b6004600083815260200190815260200160002060009054906101000a900473ffffffffffffffffffffffffffffffffffffffff169050919050565b6000610ecc8261133a565b90508073ffffffffffffffffffffffffffffffffffffffff168373ffffffffffffffffffffffffffffffffffffffff161415610f53576040517f08c379a00000000000000000000000000000000000000000000000000000000081526004018080602001828103825260218152602001806132dc6021913960400191505060405180910390fd5b8073ffffffffffffffffffffffffffffffffffffffff16610f72611d8e565b73ffffffffffffffffffffffffffffffffffffffff161480610fa15750610fa081610f9b611d8e565b611cdd565b5b610ff6576040517f08c379a00000000000000000000000000000000000000000000000000000000081526004018080602001828103825260388152602001806131ab6038913960400191505060405180910390fd5b6110008383611d96565b505050565b6060600c80548060200260200160405190810160405280929190818152602001828054801561105357602002820191906000526020600020905b81548152602001906001019080831161103f575b5050505050905090565b60006110696002611e4f565b905090565b600c818154811061107b57fe5b906000526020600020016000915090505481565b60608082516040519080825280602002602001820160405280156110c25781602001602082028038833980820191505090505b509050600080905060008090505b84518110156111405760008582815181106110e757fe5b602002602001015190506000600c600183038154811061110357fe5b906000526020600020015490508085858151811061111d57fe5b6020026020010181815250508380600101945050505080806001019150506110d0565b508192505050919050565b61115c611156611d8e565b82611e64565b6111b1576040517f08c379a00000000000000000000000000000000000000000000000000000000081526004018080602001828103825260318152602001806132fd6031913960400191505060405180910390fd5b6111bc838383611f58565b505050565b600061121482600160008673ffffffffffffffffffffffffffffffffffffffff1673ffffffffffffffffffffffffffffffffffffffff16815260200190815260200160002061219b90919063ffffffff16565b905092915050565b60608061122883611413565b6040519080825280602002602001820160405280156112565781602001602082028038833980820191505090505b509050600080905060008090505b600c805490508110156112e2578473ffffffffffffffffffffffffffffffffffffffff166112946001830161133a565b73ffffffffffffffffffffffffffffffffffffffff1614156112d557600181018383815181106112c057fe5b60200260200101818152505081806001019250505b8080600101915050611264565b508192505050919050565b61130883838360405180602001604052806000815250611994565b505050565b6000600b54905090565b60008061132e8360026121b590919063ffffffff16565b50905080915050919050565b600061136a8260405180606001604052806029815260200161320d6029913960026121e49092919063ffffffff16565b9050919050565b606060098054600181600116156101000203166002900480601f0160208091040260200160405190810160405280929190818152602001828054600181600116156101000203166002900480156114095780601f106113de57610100808354040283529160200191611409565b820191906000526020600020905b8154815290600101906020018083116113ec57829003601f168201915b5050505050905090565b60008073ffffffffffffffffffffffffffffffffffffffff168273ffffffffffffffffffffffffffffffffffffffff16141561149a576040517f08c379a000000000000000000000000000000000000000000000000000000000815260040180806020018281038252602a8152602001806131e3602a913960400191505060405180910390fd5b6114e1600160008473ffffffffffffffffffffffffffffffffffffffff1673ffffffffffffffffffffffffffffffffffffffff168152602001908152602001600020612203565b9050919050565b600e6020528060005260406000206000915054906101000a900473ffffffffffffffffffffffffffffffffffffffff1681565b606060078054600181600116156101000203166002900480601f0160208091040260200160405190810160405280929190818152602001828054600181600116156101000203166002900480156115b35780601f10611588576101008083540402835291602001916115b3565b820191906000526020600020905b81548152906001019060200180831161159657829003601f168201915b5050505050905090565b600b54600c80549050106115d057600080fd5b600c8190806001815401808255809150506001900390600052602060002001600090919091909150556000600c80549050905033600e600083815260200190815260200160002060006101000a81548173ffffffffffffffffffffffffffffffffffffffff021916908373ffffffffffffffffffffffffffffffffffffffff1602179055506116a86001600f60003373ffffffffffffffffffffffffffffffffffffffff1673ffffffffffffffffffffffffffffffffffffffff1681526020019081526020016000205461221890919063ffffffff16565b506001600d600083815260200190815260200160002060006101000a81548160ff0219169083151502179055506116df33826122a0565b7fa7ff11abcb972c8e04eebed05fa387d581f3c8d39c74c5e315b55d618a10b2108183604051808381526020018281526020019250505060405180910390a15050565b61172a611d8e565b73ffffffffffffffffffffffffffffffffffffffff168273ffffffffffffffffffffffffffffffffffffffff1614156117cb576040517f08c379a00000000000000000000000000000000000000000000000000000000081526004018080602001828103825260198152602001807f4552433732313a20617070726f766520746f2063616c6c65720000000000000081525060200191505060405180910390fd5b80600560006117d8611d8e565b73ffffffffffffffffffffffffffffffffffffffff1673ffffffffffffffffffffffffffffffffffffffff16815260200190815260200160002060008473ffffffffffffffffffffffffffffffffffffffff1673ffffffffffffffffffffffffffffffffffffffff16815260200190815260200160002060006101000a81548160ff0219169083151502179055508173ffffffffffffffffffffffffffffffffffffffff16611885611d8e565b73ffffffffffffffffffffffffffffffffffffffff167f17307eab39ab6107e8899845ad3d59bd9653f200f220920489ca2b5937696c3183604051808215151515815260200191505060405180910390a35050565b81600e600082815260200190815260200160002060009054906101000a900473ffffffffffffffffffffffffffffffffffffffff1673ffffffffffffffffffffffffffffffffffffffff163373ffffffffffffffffffffffffffffffffffffffff161461194657600080fd5b81600c600185038154811061195757fe5b9060005260206000200181905550505050565b600061197582611413565b9050919050565b600f6020528060005260406000206000915090505481565b6119a561199f611d8e565b83611e64565b6119fa576040517f08c379a00000000000000000000000000000000000000000000000000000000081526004018080602001828103825260318152602001806132fd6031913960400191505060405180910390fd5b611a06848484846122be565b50505050565b6060611a1782611d71565b611a6c576040517f08c379a000000000000000000000000000000000000000000000000000000000815260040180806020018281038252602f8152602001806132ad602f913960400191505060405180910390fd5b6060600860008481526020019081526020016000208054600181600116156101000203166002900480601f016020809104026020016040519081016040528092919081815260200182805460018160011615610100020316600290048015611b155780601f10611aea57610100808354040283529160200191611b15565b820191906000526020600020905b815481529060010190602001808311611af857829003601f168201915b505050505090506060611b26611371565b9050600081511415611b3c578192505050611cd8565b600082511115611c0d5780826040516020018083805190602001908083835b60208310611b7e5780518252602082019150602081019050602083039250611b5b565b6001836020036101000a03801982511681845116808217855250505050505090500182805190602001908083835b60208310611bcf5780518252602082019150602081019050602083039250611bac565b6001836020036101000a0380198251168184511680821785525050505050509050019250505060405160208183030381529060405292505050611cd8565b80611c1785612330565b6040516020018083805190602001908083835b60208310611c4d5780518252602082019150602081019050602083039250611c2a565b6001836020036101000a03801982511681845116808217855250505050505090500182805190602001908083835b60208310611c9e5780518252602082019150602081019050602083039250611c7b565b6001836020036101000a03801982511681845116808217855250505050505090500192505050604051602081830303815290604052925050505b919050565b6000600560008473ffffffffffffffffffffffffffffffffffffffff1673ffffffffffffffffffffffffffffffffffffffff16815260200190815260200160002060008373ffffffffffffffffffffffffffffffffffffffff1673ffffffffffffffffffffffffffffffffffffffff16815260200190815260200160002060009054906101000a900460ff16905092915050565b6000611d8782600261246090919063ffffffff16565b9050919050565b600033905090565b816004600083815260200190815260200160002060006101000a81548173ffffffffffffffffffffffffffffffffffffffff021916908373ffffffffffffffffffffffffffffffffffffffff160217905550808273ffffffffffffffffffffffffffffffffffffffff16611e098361133a565b73ffffffffffffffffffffffffffffffffffffffff167f8c5be1e5ebec7d5bd14f71427d1e84f3dd0314c0f7b2291e5b200ac8c7c3b92560405160405180910390a45050565b6000611e5d8260000161247a565b9050919050565b6000611e6f82611d71565b611ec4576040517f08c379a000000000000000000000000000000000000000000000000000000000815260040180806020018281038252602c81526020018061317f602c913960400191505060405180910390fd5b6000611ecf8361133a565b90508073ffffffffffffffffffffffffffffffffffffffff168473ffffffffffffffffffffffffffffffffffffffff161480611f3e57508373ffffffffffffffffffffffffffffffffffffffff16611f2684610e26565b73ffffffffffffffffffffffffffffffffffffffff16145b80611f4f5750611f4e8185611cdd565b5b91505092915050565b8273ffffffffffffffffffffffffffffffffffffffff16611f788261133a565b73ffffffffffffffffffffffffffffffffffffffff1614611fe4576040517f08c379a00000000000000000000000000000000000000000000000000000000081526004018080602001828103825260298152602001806132846029913960400191505060405180910390fd5b600073ffffffffffffffffffffffffffffffffffffffff168273ffffffffffffffffffffffffffffffffffffffff16141561206a576040517f08c379a00000000000000000000000000000000000000000000000000000000081526004018080602001828103825260248152602001806131356024913960400191505060405180910390fd5b61207583838361248b565b612080600082611d96565b6120d181600160008673ffffffffffffffffffffffffffffffffffffffff1673ffffffffffffffffffffffffffffffffffffffff16815260200190815260200160002061249090919063ffffffff16565b5061212381600160008573ffffffffffffffffffffffffffffffffffffffff1673ffffffffffffffffffffffffffffffffffffffff1681526020019081526020016000206124aa90919063ffffffff16565b5061213a818360026124c49092919063ffffffff16565b50808273ffffffffffffffffffffffffffffffffffffffff168473ffffffffffffffffffffffffffffffffffffffff167fddf252ad1be2c89b69c2b068fc378daa952ba7f163c4a11628f55a4df523b3ef60405160405180910390a4505050565b60006121aa83600001836124f9565b60001c905092915050565b6000806000806121c8866000018661257c565b915091508160001c8160001c8090509350935050509250929050565b60006121f7846000018460001b84612615565b60001c90509392505050565b60006122118260000161270b565b9050919050565b600080828401905083811015612296576040517f08c379a000000000000000000000000000000000000000000000000000000000815260040180806020018281038252601b8152602001807f536166654d6174683a206164646974696f6e206f766572666c6f77000000000081525060200191505060405180910390fd5b8091505092915050565b6122ba82826040518060200160405280600081525061271c565b5050565b6122c9848484611f58565b6122d58484848461278d565b61232a576040517f08c379a00000000000000000000000000000000000000000000000000000000081526004018080602001828103825260328152602001806131036032913960400191505060405180910390fd5b50505050565b60606000821415612378576040518060400160405280600181526020017f3000000000000000000000000000000000000000000000000000000000000000815250905061245b565b600082905060005b600082146123a2578080600101915050600a828161239a57fe5b049150612380565b6060816040519080825280601f01601f1916602001820160405280156123d75781602001600182028038833980820191505090505b50905060006001830390508593505b6000841461245357600a84816123f857fe5b0660300160f81b8282806001900393508151811061241257fe5b60200101907effffffffffffffffffffffffffffffffffffffffffffffffffffffffffffff1916908160001a905350600a848161244b57fe5b0493506123e6565b819450505050505b919050565b6000612472836000018360001b6129d2565b905092915050565b600081600001805490509050919050565b505050565b60006124a2836000018360001b6129f5565b905092915050565b60006124bc836000018360001b612add565b905092915050565b60006124f0846000018460001b8473ffffffffffffffffffffffffffffffffffffffff1660001b612b4d565b90509392505050565b60008183600001805490501161255a576040517f08c379a00000000000000000000000000000000000000000000000000000000081526004018080602001828103825260228152602001806130e16022913960400191505060405180910390fd5b82600001828154811061256957fe5b9060005260206000200154905092915050565b600080828460000180549050116125de576040517f08c379a00000000000000000000000000000000000000000000000000000000081526004018080602001828103825260228152602001806132366022913960400191505060405180910390fd5b60008460000184815481106125ef57fe5b906000526020600020906002020190508060000154816001015492509250509250929050565b600080846001016000858152602001908152602001600020549050600081141583906126dc576040517f08c379a00000000000000000000000000000000000000000000000000000000081526004018080602001828103825283818151815260200191508051906020019080838360005b838110156126a1578082015181840152602081019050612686565b50505050905090810190601f1680156126ce5780820380516001836020036101000a031916815260200191505b509250505060405180910390fd5b508460000160018203815481106126ef57fe5b9060005260206000209060020201600101549150509392505050565b600081600001805490509050919050565b6127268383612c29565b612733600084848461278d565b612788576040517f08c379a00000000000000000000000000000000000000000000000000000000081526004018080602001828103825260328152602001806131036032913960400191505060405180910390fd5b505050565b60006127ae8473ffffffffffffffffffffffffffffffffffffffff16612e1d565b6127bb57600190506129ca565b606061295163150b7a0260e01b6127d0611d8e565b888787604051602401808573ffffffffffffffffffffffffffffffffffffffff1673ffffffffffffffffffffffffffffffffffffffff1681526020018473ffffffffffffffffffffffffffffffffffffffff1673ffffffffffffffffffffffffffffffffffffffff16815260200183815260200180602001828103825283818151815260200191508051906020019080838360005b83811015612880578082015181840152602081019050612865565b50505050905090810190601f1680156128ad5780820380516001836020036101000a031916815260200191505b5095505050505050604051602081830303815290604052907bffffffffffffffffffffffffffffffffffffffffffffffffffffffff19166020820180517bffffffffffffffffffffffffffffffffffffffffffffffffffffffff8381831617835250505050604051806060016040528060328152602001613103603291398773ffffffffffffffffffffffffffffffffffffffff16612e309092919063ffffffff16565b9050600081806020019051602081101561296a57600080fd5b8101908080519060200190929190505050905063150b7a0260e01b7bffffffffffffffffffffffffffffffffffffffffffffffffffffffff1916817bffffffffffffffffffffffffffffffffffffffffffffffffffffffff191614925050505b949350505050565b600080836001016000848152602001908152602001600020541415905092915050565b60008083600101600084815260200190815260200160002054905060008114612ad15760006001820390506000600186600001805490500390506000866000018281548110612a4057fe5b9060005260206000200154905080876000018481548110612a5d57fe5b9060005260206000200181905550600183018760010160008381526020019081526020016000208190555086600001805480612a9557fe5b60019003818190600052602060002001600090559055866001016000878152602001908152602001600020600090556001945050505050612ad7565b60009150505b92915050565b6000612ae98383612e48565b612b42578260000182908060018154018082558091505060019003906000526020600020016000909190919091505582600001805490508360010160008481526020019081526020016000208190555060019050612b47565b600090505b92915050565b6000808460010160008581526020019081526020016000205490506000811415612bf457846000016040518060400160405280868152602001858152509080600181540180825580915050600190039060005260206000209060020201600090919091909150600082015181600001556020820151816001015550508460000180549050856001016000868152602001908152602001600020819055506001915050612c22565b82856000016001830381548110612c0757fe5b90600052602060002090600202016001018190555060009150505b9392505050565b600073ffffffffffffffffffffffffffffffffffffffff168273ffffffffffffffffffffffffffffffffffffffff161415612ccc576040517f08c379a00000000000000000000000000000000000000000000000000000000081526004018080602001828103825260208152602001807f4552433732313a206d696e7420746f20746865207a65726f206164647265737381525060200191505060405180910390fd5b612cd581611d71565b15612d48576040517f08c379a000000000000000000000000000000000000000000000000000000000815260040180806020018281038252601c8152602001807f4552433732313a20746f6b656e20616c7265616479206d696e7465640000000081525060200191505060405180910390fd5b612d546000838361248b565b612da581600160008573ffffffffffffffffffffffffffffffffffffffff1673ffffffffffffffffffffffffffffffffffffffff1681526020019081526020016000206124aa90919063ffffffff16565b50612dbc818360026124c49092919063ffffffff16565b50808273ffffffffffffffffffffffffffffffffffffffff16600073ffffffffffffffffffffffffffffffffffffffff167fddf252ad1be2c89b69c2b068fc378daa952ba7f163c4a11628f55a4df523b3ef60405160405180910390a45050565b600080823b905060008111915050919050565b6060612e3f8484600085612e6b565b90509392505050565b600080836001016000848152602001908152602001600020541415905092915050565b606082471015612ec6576040517f08c379a00000000000000000000000000000000000000000000000000000000081526004018080602001828103825260268152602001806131596026913960400191505060405180910390fd5b612ecf85612e1d565b612f41576040517f08c379a000000000000000000000000000000000000000000000000000000000815260040180806020018281038252601d8152602001807f416464726573733a2063616c6c20746f206e6f6e2d636f6e747261637400000081525060200191505060405180910390fd5b600060608673ffffffffffffffffffffffffffffffffffffffff1685876040518082805190602001908083835b60208310612f915780518252602082019150602081019050602083039250612f6e565b6001836020036101000a03801982511681845116808217855250505050505090500191505060006040518083038185875af1925050503d8060008114612ff3576040519150601f19603f3d011682016040523d82523d6000602084013e612ff8565b606091505b5091509150613008828286613014565b92505050949350505050565b60608315613024578290506130d9565b6000835111156130375782518084602001fd5b816040517f08c379a00000000000000000000000000000000000000000000000000000000081526004018080602001828103825283818151815260200191508051906020019080838360005b8381101561309e578082015181840152602081019050613083565b50505050905090810190601f1680156130cb5780820380516001836020036101000a031916815260200191505b509250505060405180910390fd5b939250505056fe456e756d657261626c655365743a20696e646578206f7574206f6620626f756e64734552433732313a207472616e7366657220746f206e6f6e20455243373231526563656976657220696d706c656d656e7465724552433732313a207472616e7366657220746f20746865207a65726f2061646472657373416464726573733a20696e73756666696369656e742062616c616e636520666f722063616c6c4552433732313a206f70657261746f7220717565727920666f72206e6f6e6578697374656e7420746f6b656e4552433732313a20617070726f76652063616c6c6572206973206e6f74206f776e6572206e6f7220617070726f76656420666f7220616c6c4552433732313a2062616c616e636520717565727920666f7220746865207a65726f20616464726573734552433732313a206f776e657220717565727920666f72206e6f6e6578697374656e7420746f6b656e456e756d657261626c654d61703a20696e646578206f7574206f6620626f756e64734552433732313a20617070726f76656420717565727920666f72206e6f6e6578697374656e7420746f6b656e4552433732313a207472616e73666572206f6620746f6b656e2074686174206973206e6f74206f776e4552433732314d657461646174613a2055524920717565727920666f72206e6f6e6578697374656e7420746f6b656e4552433732313a20617070726f76616c20746f2063757272656e74206f776e65724552433732313a207472616e736665722063616c6c6572206973206e6f74206f776e6572206e6f7220617070726f766564a26469706673582212209a6bed21732bb1297fe253711f13c960c4e876b7e98542dabc86a2e4db2e099b64736f6c63430006020033",
  "source": "pragma solidity >=0.6.0 <0.8.0;\n\nimport \"../node_modules/@openzeppelin/contracts/token/ERC721/ERC721.sol\";\n\ncontract Flatland is ERC721 {\n\n  using SafeMath for uint256;\n\n  constructor() ERC721(\"Flatland\", \"FLATLAND\") public {\n  }\n\n  event NewSquare(uint256 squareId, uint256 color);\n\n  uint256 maxLength = 16;\n  uint256 maxSquares = maxLength ** 2;\n\n  // Using 32 bit numbers instead of 256, to ensure smallest possible database size\n  uint256[] public squares;\n\n  // Mapping recording the existence of each square by ID\n  mapping (uint256 => bool) _squareExists;\n\n  // Mapping from square ID to owner address\n  mapping (uint256 => address) public squareToOwner;\n\n  // Mapping from owner address to square count\n  mapping (address => uint256) public ownerSquareCount;\n\n\n  // Note: ownsNoSquares modifier is omitted from this function for testing purposes\n  function mint(uint256 _colour) public canvasHasSpace  {\n\n    squares.push(_colour);\n    uint256 id = squares.length;\n    squareToOwner[id] = msg.sender;\n    ownerSquareCount[msg.sender].add(1);\n    _squareExists[id] = true;\n\n\n    //safeMint function from Open Zeppelin ERC721. It\n    // * checks if token _exists\n    // * updates _holderTokens and _tokenOwners (used by _exists)\n    // * Emits a Transfer event\n    _safeMint(msg.sender, id);\n\n    emit NewSquare(id, _colour);\n  }\n\n  function changeColour(uint256 _id, uint256 _newColour) public OnlyOwner(_id) {\n    squares[_id - 1] = _newColour;\n  }\n\n  function getSquares() public view returns(uint256[] memory) {\n    return squares;\n  }\n\n  // Returns square IDs. IDs start at 1.\n  function getSquaresIdsByOwner(address _owner) public view returns(uint256[] memory) {\n    uint256[] memory result = new uint256[](balanceOf(_owner));\n    uint counter = 0;\n    for (uint i = 0; i < squares.length; i++) {\n      if (ownerOf(i + 1) == _owner) {\n        result[counter] = i + 1;\n        counter++;\n      }\n    }\n    return result;\n  }\n\n  function getSquareColoursFromIds(uint256[] memory _squareIds) public view returns (uint256[] memory) {\n    uint256[] memory result = new uint256[](_squareIds.length);\n    uint counter = 0;\n    for (uint i = 0; i <_squareIds.length; i++) {\n      uint squareId = _squareIds[i];\n      uint squareColour = squares[squareId - 1];\n      result[counter] = squareColour;\n      counter++;\n    }\n    return result;\n  }\n\n\nfunction getMaxSupply() public view returns(uint) {\n  return maxSquares;\n}\n\nfunction getOwnerSquareCount(address _owner) public view returns(uint256) {\n  return balanceOf(_owner);\n}\n\n  modifier canvasHasSpace {\n      require(squares.length < maxSquares);\n      _;\n  }\n  modifier ownsNoSquares {\n      require(balanceOf(msg.sender) < 1, 'Each account may only own one square');\n      _;\n  }\n\n  modifier OnlyOwner (uint256 _id) {\n    require(msg.sender == squareToOwner[_id]);\n    _;\n  }\n\n}",
  "sourcePath": "/Users/emilioziniades/flatland/contracts/Flatland.sol",
  "compiler": {
    "name": "solc",
    "version": "0.6.2+commit.bacdbe57.Emscripten.clang"
  },
  "schemaVersion": "3.3.4",
  "updatedAt": "2021-04-05T20:42:19.090Z",
  "networkType": "ethereum",
  "devdoc": {
    "methods": {
      "approve(address,uint256)": {
        "details": "See {IERC721-approve}."
      },
      "balanceOf(address)": {
        "details": "See {IERC721-balanceOf}."
      },
      "baseURI()": {
        "details": "Returns the base URI set via {_setBaseURI}. This will be automatically added as a prefix in {tokenURI} to each token's URI, or to the token ID if no specific URI is set for that token ID."
      },
      "getApproved(uint256)": {
        "details": "See {IERC721-getApproved}."
      },
      "isApprovedForAll(address,address)": {
        "details": "See {IERC721-isApprovedForAll}."
      },
      "name()": {
        "details": "See {IERC721Metadata-name}."
      },
      "ownerOf(uint256)": {
        "details": "See {IERC721-ownerOf}."
      },
      "safeTransferFrom(address,address,uint256)": {
        "details": "See {IERC721-safeTransferFrom}."
      },
      "safeTransferFrom(address,address,uint256,bytes)": {
        "details": "See {IERC721-safeTransferFrom}."
      },
      "setApprovalForAll(address,bool)": {
        "details": "See {IERC721-setApprovalForAll}."
      },
      "supportsInterface(bytes4)": {
        "details": "See {IERC165-supportsInterface}.     * Time complexity O(1), guaranteed to always use less than 30 000 gas."
      },
      "symbol()": {
        "details": "See {IERC721Metadata-symbol}."
      },
      "tokenByIndex(uint256)": {
        "details": "See {IERC721Enumerable-tokenByIndex}."
      },
      "tokenOfOwnerByIndex(address,uint256)": {
        "details": "See {IERC721Enumerable-tokenOfOwnerByIndex}."
      },
      "tokenURI(uint256)": {
        "details": "See {IERC721Metadata-tokenURI}."
      },
      "totalSupply()": {
        "details": "See {IERC721Enumerable-totalSupply}."
      },
      "transferFrom(address,address,uint256)": {
        "details": "See {IERC721-transferFrom}."
      }
    }
  },
  "userdoc": {
    "methods": {}
  }
}